:020000040800F2
:10000000F816002005240008B5050008B70500080B
:10001000BB050008BF050008C3050008000000007C
:10002000000000000000000000000000C7050008FC
:10003000C905000800000000CB050008CD05000838
:100040001F2400081F2400081F2400081F24000884
:100050001F2400081F2400081F2400081F24000874
:100060001F2400081F2400081F2400081F24000864
:100070001F2400081F2400081F2400081F24000854
:100080001F2400081F2400081F2400081F24000844
:100090001F2400081F2400081F2400081F24000834
:1000A0001F2400081F2400081F2400081F24000824
:1000B0001F240008391D00081F2400081F24000801
:1000C0001F2400081F2400081F2400081F24000804
:1000D0001F240008E5210008052300087F230008ED
:1000E0001F2400081F2400081F240008DFF80CD07C
:1000F00004F0A2FB0048004735010008F816002074
:1001000038B501F03CF8F149262001F027F9044602
:1001100074B9EF4801F057F940B900200090EC485D
:100120000278032306212D2000F08EFC002038BD2C
:100130000120FCE708B500244FF4A06002F0F8FEAF
:1001400001F026FE4FF4165001F046FF00F011FEBC
:1001500000F068FE00F05FFD01F04CF8DDA004F057
:10016000ADFB4FF40041DD4802F06DFA4FF4006141
:10017000DB4802F066FA4FF47A7001F046FE4FF465
:100180000061D74802F05FFA4FF40041D34802F013
:1001900058FA00F016FCD3A20021084600F09CFC9F
:1001A000D2A20221002000F097FCD2A2042100205C
:1001B00000F092FCD1A20621002000F08DFC83E12A
:1001C0000121D14802F023FAC0B9642001F01DFEDC
:1001D0000121CD4802F01BFA80B9CC480068401CD0
:1001E000CA49086008460168C9A004F067FB00F02E
:1001F000E8FB0020CA490860CA4908601021C248CB
:1002000002F005FA68B9642001F0FFFD1021BE4834
:1002100002F0FDF928B9C448007880F00100C24915
:100220000870BA49086800EBD0714910A0EB410191
:1002300000297DD1BDA2084600F04EFCFFF760FF0B
:1002400001F0C0FB054604F0BAF9B649086008465B
:100250000168B8A004F032FBB2480068002825DD30
:10026000BA49522001F07AF800BB0120AE4908706B
:10027000AC480068401EAB4908600846006800288A
:1002800001DC00200860A748006804F07AF9054600
:1002900001F0D9FBA24800680A30A149086001F0CA
:1002A00091FB054604F08BF99E4908609C48006864
:1002B000002852DD9C48007801284ED1A4480078DF
:1002C00008B9012000E000208149085C20B1A1A20A
:1002D0000021402000F000FCA0A20221002000F03C
:1002E000FBFB0120032300908E480221026832208C
:1002F00000F0AAFB9BA20421002000F0EDFB9CA2D1
:100300000621002000F0E8FB0120009070480278F0
:10031000032306212D2000F097FB012001F075FD3D
:10032000601C84B2052C0DD17D480068401E00E0A1
:1003300060E07B49086008460068002801DC002076
:10034000086000244FF40041644802F07CF94FF447
:100350000061634802F075F94CE0714800680028BC
:1003600012DD7148007878B983A20421002000F0E2
:10037000B3FB4FF400615A4802F065F94FF40041B5
:10038000564802F05EF935E065480068002831DA29
:100390006548007801282DD17AA20021084600F096
:1003A0009BFB6EA20221002000F096FB012003239C
:1003B000002202210090322000F046FB75A20421A9
:1003C000002000F089FB6AA20621002000F084FBD7
:1003D000012003230022062100902D2000F034FB91
:1003E0004FF400613E4802F02EF94FF400413B48C3
:1003F00002F027F94549086800EBD0714910A0EBDD
:100400004101012960D166A20021084600F064FB89
:1004100001F0D8FA054604F0D2F8424908600846CF
:10042000016844A004F04AFAFFF76AFE0221364848
:1004300002F0EDF8F8B9642001F0E7FC022132483F
:1004400002F0E5F8B8B9374800686430354908600B
:100450000846006804F095F8054601F0F4FA01F04A
:10046000B1FA054604F0ABF82E4908600846016869
:1004700030A004F023FA39A20221002000F02CFB66
:10048000012003230090274802210268322000F057
:10049000DBFA46A20421002000F01EFB002003230B
:1004A000642204210090322000F0CEFA30A206210E
:1004B000002000F011FB0120009005480278032382
:1004C00006212D2000F0C0FA7AE600004A11002033
:1004D000200000205531206F6B000000001001400B
:1004E00000080140CAB9D3C3C8CB0000C7EBB7C5E9
:1004F000C9CF00004943BFA800000000BDF8D0D01C
:10050000B3E4B5E700000000000C01404800002003
:100510007365745F6D61726B2025640D0A000000C5
:10052000500000205400002058000020CAB9D3C356
:10053000C8CB3A0074656D705F6D6F6E6579312060
:10054000252E31326C660D0A0000000025000020C7
:1005500010000020CDF5C0BD00000000D3E0B6EED5
:100560003A000000B3E4B5E7D6D0202020200000F8
:10057000BFA8BAC53A000000B3E4B5E7D4DDCDA307
:1005800000000000CAB9D3C3C8CB3A2020202020E5
:1005900020202000B3E4B5E7BDE1CAF80000000068
:1005A000B3E4D6B5C4A3CABD00000000B3E4D6B519
:1005B0003A000000704700BFFEE700BFFEE700BF43
:1005C000FEE700BFFEE770477047704770470000C6
:1005D0000CB50020019000906C48006840F4803019
:1005E0006A49086000BF6948006800F40030009064
:1005F0000198401C0190009818B90198B0F5A06FBF
:10060000F1D16248006800F4003010B10120009080
:1006100001E0002000900098012843D15C48006868
:1006200040F010005A4908600846006820F00300B6
:1006300008600846006840F00200086053484068BF
:10064000524948600846406848600846406840F49F
:10065000806048600846406820F47C104860084686
:10066000406840F4E81048600846006840F0807038
:10067000086000BF4548006800F000700028F9D00D
:100680004248406820F003004049486008464068FE
:1006900040F00200486000BF3C48406800F00C0099
:1006A0000828F9D10CBD10B5FFF792FF10BD10B5A9
:1006B0003648006840F00100344908600846406848
:1006C00034490840314948600846006832490840CA
:1006D0002E4908600846006820F48020086008461B
:1006E000406820F4FE0048604FF41F008860FFF768
:1006F000DAFF4FF000602949086010BD10B50021F5
:1007000000200022214B5B6803F00C0121B1042979
:1007100006D0082928D107E0214B224C236027E08E
:100720001F4B204C236023E0184B5B6803F47010D0
:10073000164B5B6803F48032022303EB904022B92E
:10074000194B4343174C23600DE0104B5B6803F4D7
:10075000003323B1144B4343124C236003E0104B8E
:100760004343104C236003E00D4B0E4C236000BF4D
:1007700000BF064B5B68C3F303130C4CE15C094BF1
:100780001B68CB40074C236010BD000000100240E6
:10079000002002400000FFF8FFFFF6FE08ED00E039
:1007A00000127A005C00002000093D00600000207B
:1007B000FB4900E0521C11F8013B002BFAD1500814
:1007C0007047002001E0411CC8B20A28FBDB7047DB
:1007D00010B50020F34908600120F349C1F89401E5
:1007E000FFF7EFFF0120EF49086010BD08B50121B8
:1007F000082002F035F92020ADF8000003208DF824
:10080000020014208DF803006946E84801F06CFEF0
:100810004020ADF800006946E44801F065FEFFF7AE
:10082000D7FF08BD10B50120DE490860DE49C1F8D8
:100830009401FFF7C6FF0020DA490860FFF7C1FF07
:100840000020D949C1F89401FFF7BBFF10BD10B5D6
:100850000120D4490860FFF7B4FF0120D249C1F854
:100860009401FFF7AEFF4021D04801F0D0FE08B15F
:10087000012400E000240020CA49091F0860FFF796
:10088000A0FF204610BD70B50446002520E004F00E
:10089000800018B10120C349086002E00020C1496E
:1008A0000860FFF78EFF0120BE49091F0860FFF7AF
:1008B00088FF0020BC49C1F89401072D02D1012016
:1008C000B84908606006040EFFF77BFF681CC5B2DC
:1008D000082DDCDB70BD10B50446FFF7A3FF7820C0
:1008E000FFF7D1FFFFF7B3FF0020FFF7CCFFFFF7C3
:1008F000AEFF2046FFF7C7FFFFF7A9FFFFF768FF2E
:1009000010BD10B50446FFF78DFF7820FFF7BBFF41
:10091000FFF79DFF4020FFF7B6FFFFF798FF204647
:10092000FFF7B1FFFFF793FFFFF752FF10BD70B560
:100930000646002415E004F1B001C8B2FFF7CBFF72
:100940000020FFF7C8FF1020FFF7C5FF002504E0D7
:100950003046FFF7D6FF681CC5B2822DF8DB601C5D
:10096000C4B2082CE7DB70BD70B504460D4605F136
:10097000B001C8B2FFF7AFFFA11CC1F3031141F0F2
:100980001000FFF7A8FFA11C01F00F0141F00100CA
:10099000FFF7A1FF70BD10B58D20FFF79CFF14205D
:1009A000FFF799FFAF20FFF796FF10BD10B58D2020
:1009B000FFF791FF1020FFF78EFFAE20FFF78BFFB0
:1009C00010BD10B50020FFF7B2FF10BD2DE9F041BA
:1009D00007460E46904600250024A8F12000C5B227
:1009E000812F02DD0027B01CC6B231463846FFF722
:1009F000BBFF002407E004EB05116D4A505CFFF7D4
:100A000080FF601CC4B2082CF5DB701CC1B23846F4
:100A1000FFF7AAFF002408E004EB05110831644A3F
:100A2000505CFFF76EFF601CC4B2082CF4DBBDE81D
:100A3000F08110B50246012000E050430B1EA1F1E9
:100A40000104E1B2F9D110BD2DE9F05F05468946F8
:100A500090461E46DDF828A04FF0000B002437E03A
:100A6000301B401EC1B20A20FFF7E3FFB8FBF0F0D5
:100A70000A21B0FBF1F201FB1207BBF1000F1AD102
:100A8000701EA04217DDA7B9BAF1000F08D00821E7
:100A900001FB0451C8B230224946FFF797FF07E037
:100AA000082101FB0451C8B220224946FFF78EFFFE
:100AB0000CE04FF0010B07F13001CAB2082101FB35
:100AC0000451C8B24946FFF781FF00BF601CC4B2A1
:100AD000B442C5DBBDE8F09F2DE9F04707468846E4
:100AE0001646002591E03078A02843DD00253AE045
:100AF000702F04DD002708F1020000F0FF083078B5
:100B0000274911F8151088422CD17078012101EB8A
:100B10004501234A515C884224D141463846FFF7BB
:100B200023FF002406E004EB4511224A505CFFF746
:100B3000E8FE641C102CF6D308F10100C1B238465F
:100B4000FFF712FF002407E004EB45111031194AAA
:100B5000505CFFF7D6FE641C102CF5D307F1100093
:100B6000C7B204E06D1C144800688542C0D300BFC2
:100B7000B61C4AE07A2F04DD002708F1020000F0DD
:100B8000FF0831780D4803F063FB8146B9F1000F8F
:100B90003AD041463846FFF7E7FE00241AE000004D
:100BA000000C00209881214200802142000C01406D
:100BB0007000002060060020BC1000205B0C0020AC
:100BC00099F80010203904EB01115D4A505CFFF7E1
:100BD00098FE641C082CF3D308F10100C1B238461A
:100BE000FFF7C2FE00240AE099F80010203904EB58
:100BF00001110831524A505CFFF783FE641C082C37
:100C0000F2D307F10800C7B2761C307800287FF4D1
:100C10006AAFBDE8F08710B5FFF7CAFD4949086023
:100C2000FFF7E4FDAE20FFF756FE0020FFF753FE6E
:100C30001020FFF750FE4020FFF74DFEB020FFF7D9
:100C40004AFE8120FFF747FEFF20FFF744FEA12068
:100C5000FFF741FEA620FFF73EFEA820FFF73BFE70
:100C60003F20FFF738FEC820FFF735FED320FFF7FF
:100C700032FE0020FFF72FFED520FFF72CFE80204C
:100C8000FFF729FED820FFF726FE0520FFF723FEF9
:100C9000D920FFF720FEF120FFF71DFEDA20FFF735
:100CA0001AFE1220FFF717FEDB20FFF714FE30209C
:100CB000FFF711FE8D20FFF70EFE1420FFF70BFE4D
:100CC000AF20FFF708FE10BD2DE9F05F06460F4686
:100CD00090461C46DDF828A04FF0000BE11704EB0E
:100CE0005171C910A4EBC10131B92046E11704EBE1
:100CF0005171C1F3C70506E02046E11704EB5171BD
:100D0000C910491CCDB23D4615E029463046FFF7D3
:100D10002BFEB1460BE059464A1C1FFA82FB1AF81B
:100D20000100FFF7EEFD09F1010000F0FF09C145E8
:100D3000F1DB681CC5B2A542E7DBBDE8F09F00000F
:100D400070000020BC10002010B50121324801F0D5
:100D500078FC4FF40041314801F073FC4FF48041BE
:100D60002E4801F06EFC4FF400512C4801F069FC54
:100D700010BD08B501211C2001F072FE4FF4604047
:100D8000ADF8000003208DF8020010208DF803005C
:100D90006946224801F0A8FB4FF4C050ADF80000AE
:100DA00003208DF8020010208DF8030069461A48D0
:100DB00001F09AFBFFF7C8FF08BD08B50121082024
:100DC00001F04EFE4FF48040ADF8000003208DF896
:100DD000020010208DF803006946114801F084FBE1
:100DE000012291030E4801F030FC08BD10B501212D
:100DF000094801F028FC4FF40041084801F023FCA9
:100E00004FF48041054801F01EFC4FF400510348A7
:100E100001F019FC10BD0000000801400010014065
:100E2000000C014008B50121092001F019FE012143
:100E30004C4801F02AFC40F21340ADF80000482075
:100E40008DF803006946484801F04EFB08BD0EB519
:100E50000121084601F004FE0021012001F05AFCA6
:100E60000121084601F056FC0A21012001F052FC44
:100E70000F21012001F04EFC0120009000208DF890
:100E800004000C208DF8050001208DF8060068464E
:100E900003F05EF90220009000208DF804000C2081
:100EA0008DF8050001208DF80600684603F050F922
:100EB0004FF48060009000208DF804000C208DF825
:100EC000050001208DF80600684603F041F94FF453
:100ED0000040009000208DF804000C208DF80500E3
:100EE00001208DF80600684603F032F906208DF8DF
:100EF000080003208DF8090000208DF80A00012069
:100F00008DF80B0002A802F018F807208DF80800F1
:100F100003208DF8090001208DF80A008DF80B00E0
:100F200002A802F00AF808208DF8080003208DF8C6
:100F3000090000208DF80A0001208DF80B0002A89E
:100F400001F0FBFF09208DF8080003208DF809004F
:100F500001208DF80A008DF80B0002A801F0EDFFCA
:100F60000EBD000000023000000C0140002103E033
:100F700000BF00BF00BF491C8142F9D3704770B564
:100F80000546002405E0601CC4B2C82C01DD002029
:100F900070BD0221FE4802F088F90028F3D02946EE
:100FA000FB4802F02FF9002405E0601CC4B2C82CF5
:100FB00001DD0020ECE70121F54802F076F9002878
:100FC000F3D0F34802F020F9C0B2E1E708B50121FF
:100FD00041F2040001F044FDE020ADF800001820CB
:100FE0008DF8030003208DF802006946E94801F0FE
:100FF0007BFAE021E74801F024FB1820ADF800005F
:1010000010208DF8030003208DF802006946E148A6
:1010100001F06AFA0020E04908804FF482704880AD
:10102000002088800220C880012008814002488179
:10103000382088810020C88107200882D44802F027
:101040000BF80121D24802F0ACF808BD10B50446F7
:10105000D14884810146D14801F0FEFF0121CF48EB
:1010600002F09FF810BD70B504460D460820C9492E
:10107000143108607E2000EA44063046FFF77FFF07
:101080002846FFF77CFF0820C2491031086070BD78
:1010900070B5044600260820BE49143108607E2041
:1010A00000EA440040F080052846FFF768FF002072
:1010B000FFF765FF06460820B64910310860304644
:1010C00070BD70B505460C4600262846FFF7E0FFC8
:1010D000064646EA04012846FFF7C5FF70BD10B575
:1010E0001420FFF7D5FF044604F0030018B90321CC
:1010F0001420FFF7E6FF10BD70B505460C4600262C
:101100002846FFF7C5FF064626EA04012846FFF7F2
:10111000AAFF70BD10B50446412C26D1082108460F
:10112000FFF7EAFF3D211120FFF79DFF86211720E1
:10113000FFF799FF7F212620FFF795FF1E212D2025
:10114000FFF791FF00212C20FFF78DFF8D212A2032
:10115000FFF789FF3E212B20FFF785FF4FF47A70C0
:10116000FFF704FFFFF7BBFF01E0012010BD0020E7
:10117000FCE710B503211420FFF7BEFF10BD10B52A
:1011800010208449103108600A20FFF7EFFE10207C
:101190008049143108600A20FFF7E8FE10207D49DD
:1011A000103108600A20FFF7E1FE0F210120FFF750
:1011B0005AFF0F210120FFF756FF0A20FFF7D6FE46
:1011C0003D211120FFF74FFF1E212D20FFF74BFF80
:1011D00000212C20FFF747FF8D212A20FFF743FF36
:1011E0003E212B20FFF73FFF40211520FFF73BFF5B
:1011F000002010BD10B5FFF7E9FEFFF7C0FFFFF7B5
:10120000B8FFFFF76CFF4120FFF784FF10BD10B55A
:10121000FFF7B5FFFFF7ADFFFFF761FF10BD2DE949
:10122000FE4F0646884691469A46DDF830B00220C9
:1012300002900020019000900C2E06D00E2E09D1B5
:10124000122001901020009005E0772001903020BE
:10125000009000E000BF00BF019840F08001022034
:10126000FFF701FF80210420FFF746FF0021012046
:10127000FFF7F9FE80210A20FFF723FF002506E093
:1012800018F805100920FFF7EEFE681C85B24D45E1
:10129000F6DB31460120FFF7E6FE0C2E03D180215C
:1012A0000D20FFF70EFF4FF4167500BF0420FFF767
:1012B000EFFE0446681E85B235B104F0010018B98E
:1012C000009820400028F1D080210D20FFF714FF66
:1012D000002D38D00620FFF7DBFE00F01B0078BBA6
:1012E000002002900198204000F0010008B1012088
:1012F00002900C2E27D10A20FFF7CAFE04460C20CC
:10130000FFF7C6FE00F007072FB1601E07EBC00015
:101310008BF8000003E0E006000E8BF8000004B933
:101320000124122C00DD1224002506E00920FFF71D
:10133000AFFE0AF80500681C85B2A542F6DB02E0A4
:10134000FFE70220029080210C20FFF7BAFE002167
:101350000120FFF788FE0298BDE8FE8F70B588B0C7
:1013600005460C4608210846FFF7C6FE07210D205A
:10137000FFF779FE03211420FFF7A3FE8DF8085034
:1013800007A802AB012202A900900C2008E000008F
:1013900000300140000801401811002000380040D2
:1013A000FFF73DFF064656B99DF81C00102806D1F0
:1013B0009DF8080020709DF80900607000E002268A
:1013C000304608B070BDF0B587B00546002708214B
:1013D0000846FFF791FE00210D20FFF744FE802113
:1013E0000E20FFF789FE93208DF8040020208DF851
:1013F000050006A801AB022201A900900C20FFF70E
:101400000EFF064686B9002407E001A8005D2855B6
:1014100001A8005D4740601CC4B2042CF5DB01A8A4
:10142000005DB84200D0022680210E20FFF749FE61
:10143000304607B0F0BD2DE9F04107468846154615
:1014400004210520FFF758FE00210120FFF70BFEC5
:1014500080210A20FFF735FE002405E0395D0920D0
:10146000FFF701FE601CC4B24445F7DB03210120F5
:10147000FFF7F9FDFF2400BF0520FFF709FE064630
:10148000601EC4B21CB106F004000028F4D0222073
:10149000FFF7FEFD28702120FFF7FAFD6870BDE818
:1014A000F08170B588B0054693208DF80800702053
:1014B0008DF8090000208DF80E0000240BE0295D56
:1014C00002AAA01C11549DF80E00295D48408DF819
:1014D0000E00601CC4B2042CF1DB0DF10F020721D9
:1014E00002A8FFF7A8FF08210846FFF705FE07A896
:1014F00002AB092202A900900C20FFF790FE0646DD
:101500002EB99DF81C00182801D1002600E0022603
:10151000304608B070BD2DE9F04188B004460D4654
:1015200016461F468DF808408DF809503068CDF8F2
:101530000A00B088ADF80E003868049007A802AB26
:101540000C2202A900900E20FFF769FE8046B8F138
:10155000000F05D10820FFF79BFD00F0080008B937
:101560004FF00208404608B0BDE8F081F0B587B002
:1015700005460E4630208DF804008DF805500DF11B
:101580000602022101A8FFF756FF06A801AB0422BC
:1015900001A900900C20FFF742FE07466FB99DF8A5
:1015A0001800902809D1002404E001A8005D3055FE
:1015B000601CC4B2102CF8DB00E00227384607B0EC
:1015C000F0BDF0B587B006460F46A0208DF80400A8
:1015D0008DF805600DF10602022101A8FFF72BFF2F
:1015E00006A801AB042201A900900C20FFF717FE0A
:1015F00005464DB99DF81800042805D19DF8040052
:1016000000F00F000A2800D0022515BB002404E0DA
:10161000385D01A90855601CC4B2102CF8DB05AA7E
:10162000102101A8FFF707FF06A801AB122201A9AC
:1016300000900C20FFF7F3FD05464DB99DF818000A
:10164000042805D19DF8040000F00F000A2800D0FE
:101650000225284607B0F0BD10B588B050208DF89F
:10166000080000208DF809000DF10A02022102A8ED
:10167000FFF7E1FE07A802AB042202A900900C20AC
:10168000FFF7CDFD0446002008B010BDF0B587B0CF
:1016900006460D4617468DF804608DF805500DF18D
:1016A0000602022101A8FFF7C6FE06A801AB04222C
:1016B00001A900900C20FFF7B2FD04464CB99DF83B
:1016C0001800042805D19DF8040000F00F000A2836
:1016D00000D00224A4B93868019002AA042101A80C
:1016E000FFF7A9FE0020069006A801AB062201A97B
:1016F00000900C20FFF793FD0446022C00D000243C
:10170000FCB9B0208DF804008DF805500DF10602EB
:10171000022101A8FFF78FFE06A801AB042201A950
:1017200000900C20FFF77BFD04464CB99DF8180093
:10173000042805D19DF8040000F00F000A2800D00D
:101740000224204607B0F0BD70B588B005460E46AD
:10175000C2208DF808008DF809500DF10A0202210F
:1017600002A8FFF768FE07A802AB042202A90090B6
:101770000C20FFF754FD04464CB99DF81C000428CA
:1017800005D19DF8080000F00F000A2800D00224BF
:10179000CCB900208DF808008DF809008DF80A00FA
:1017A0008DF80B0003AA042102A8FFF744FE07A846
:1017B00002AB062202A900900C20FFF730FD044680
:1017C000022C00D0002414B1022008B070BDB0205B
:1017D0008DF808008DF809600DF10A02022102A8B7
:1017E000FFF729FE07A802AB042202A900900C20F3
:1017F000FFF715FD04464CB99DF81C00042805D1DF
:101800009DF8080000F00F000A2800D002242046AE
:10181000DBE7000000BFE049098801F080010029F2
:10182000F9D0C0F30801DC4A121D11807047002076
:10183000DA490870DA490880DA490870DA4908702C
:10184000704700B50246FFF7F2FFA02A06D0A12A92
:1018500008D0A22A0DD0A32A19D111E0A520D14980
:10186000087015E0A120CF4908700420CC490880F9
:101870000EE0A220CB4908700420C949088007E087
:10188000A320C84908700720C549088000E000BFB0
:1018900000BF00BD70B5C548FFF795FD044604B113
:1018A00070BDC348C149891ED1F802100160FFF71D
:1018B000F8FD044604B1F3E7BA480078A3281AD12A
:1018C0000020B8490870B6480178B94BB94A602081
:1018D000FFF721FE044604B1E2E7B1490878B649B2
:1018E000FFF76FFE044604B1DAE7FFF7B5FE01200B
:1018F000AA4908704AE0AB480078A12817D1002017
:10190000A8490870A6480178A94BAA4A6020FFF7A9
:1019100002FE044604B1C3E7A1490878A749FFF7CE
:1019200025FE044604B1BBE7FFF796FE2EE09D4876
:101930000078A22817D100209A49087098480178A9
:101940009B4B9C4A6020FFF7E6FD044604B1A7E7E5
:10195000934908789A49FFF734FE044604B19FE79B
:10196000FFF77AFE12E08F480078A5280ED10020FC
:101970008C490870002505E08D48405D9149485527
:10198000681CC5B2042DF7DBFFF766FE00BF87E7D2
:1019900010B5FFF77FFF10BD01460A2309B90120EA
:1019A0007047012203E003EB83004300521C8A428C
:1019B000F9DB1846F4E710B5A020FFF742FFFFF768
:1019C000E7FF10BD2DE9F0474FF0000A00210C465B
:1019D0000D46A120FFF735FFFFF7DAFF4FF0010AB0
:1019E0001AE0764810F80A0090B1AAF10100FFF75A
:1019F000D3FF724911F80A1000FB01F8404602F0CB
:101A0000C0FD064622462B4602F033FC04460D4636
:101A10000AF1010000F0FF0ABAF1100FE1DB67499B
:101A2000087802F0BFFD06460022674B02F03AFD3F
:101A3000804622462B4602F01CFC04460D462046FA
:101A40002946BDE8F0872DE9F84F05460E460024EB
:101A5000A146A220FFF7F5FE00BF04E00020584990
:101A60000855601CC4B2102CF8DB0F2425E0601E62
:101A7000FFF792FF009002F084FD07463A460B46BE
:101A80002846314602F00EFD824602F0B7FD00F016
:101A9000FF094B4800F80490601EFFF77DFF00FB34
:101AA00009FA504602F06DFD07462A46334602F019
:101AB00084FC05460E46601EC4B2002CD7DC002212
:101AC000414B2846314602F07BFC074602F096FD6A
:101AD00000F0FF093A4880F80090FFF759FFBDE891
:101AE000F88F2DE9FE4105460E46099C002047E08F
:101AF000115CCF1701EB17773F110DF810701DF82F
:101B00001010092906DD1DF810103731C9B20DF883
:101B1000101005E01DF810103031C9B20DF810108A
:101B2000115CCF1701EB17773F11A1EB0717FFB23D
:101B30004FF0010C0CEB400C0DF80C70012101EB87
:101B400040011DF8011009290CDD012101EB4001C4
:101B50001DF801103731C9B2012707EB40070DF816
:101B600007100BE0012101EB40011DF8011030319D
:101B7000C9B2012707EB40070DF80710411CC8B296
:101B80000428B5DB00218DF80810BDE8FE8130B5D2
:101B9000DDE9034530BD704700380140D210002018
:101BA000C0100020C2100020C31000204C110020E3
:101BB000CA100020C4100020681100202A11002043
:101BC0003A110020CE100020000024407FB50546C9
:101BD0000C460121084600F050FFADF80850ADF862
:101BE00004400020ADF80A00ADF8060001A94FF04E
:101BF000804001F065FC01221146900701F0D7FFFB
:101C00001C208DF8000000208DF8010003208DF8C5
:101C1000020001208DF80300684601F08EF90121D1
:101C2000880701F0A9FF7FBD30B589B005460C4695
:101C30000121C80200F014FF0121052000F010FF6F
:101C400001214C4800F021FD4FF41860ADF8200050
:101C500018208DF8230003208DF8220008A946489B
:101C600000F042FCADF81850ADF814400020ADF87B
:101C70001A00ADF816008DF81C0005A93F4801F0C8
:101C80001FFC01213D4802F077F86020ADF8040008
:101C90000120ADF806000420ADF808000020ADF8E2
:101CA0000C00ADF80E004FF48070ADF8100000206D
:101CB000ADF812006420ADF80A0001A92F4801F028
:101CC0003CFC08212D4802F087F801212B4801F047
:101CD00053FF0121294801F05BFF09B030BD7FB5FA
:101CE00005460C460121022000F0C7FEADF8085061
:101CF000ADF804400020ADF80A00ADF8060001A9D7
:101D00001F4801F0DDFB012211461D4801F04FFF85
:101D10001D208DF8000000208DF8010003208DF8B3
:101D2000020001208DF80300684601F006F9012148
:101D3000134801F021FF7FBD10B50121104802F0CA
:101D4000E4F9B0B10F480088401C0E4908800846ED
:101D50000088B0F5FA7F08DB0B480068C0430B49E8
:101D6000C1F8B0010020074908800121044802F0B1
:101D7000DDF910BD4000160000080140002C0140B4
:101D800000040040EA100020B0812142008021427E
:101D900010B56FF0040001F01AF92E4800682E49C2
:101DA000B0FBF1F02D4908700846007800EB4001C7
:101DB000C1EBC0104FF6FF7101EAC000284908804E
:101DC00010BD0146254A12784A434FF0E0235A617C
:101DD00000229A611A46126942F001021A6100BF9C
:101DE0004FF0E022106900F001021AB100F48032D5
:101DF000002AF5D04FF0E022126922F001024FF0E4
:101E0000E0231A6100229A6170470146144A128841
:101E10004A434FF0E0235A6100229A611A46126940
:101E200042F001021A6100BF4FF0E022106900F099
:101E300001021AB100F48032002AF5D04FF0E022FE
:101E4000126922F001024FF0E0231A6100229A6128
:101E5000704700005C00002000127A00EC100020A7
:101E6000EE10002000BF704700BFFE4A128802F04B
:101E70004002002AF9D0C2B2FA4B1B1D1A807047EB
:101E800010B504462146F74800F08AFF00BF402104
:101E9000F44800F0F3FF0028F9D010BD70B50546F6
:101EA0000E46002404E0285DFFF7EAFF601C84B2C0
:101EB000B442F8DB70BD1CB50446EBA103C9CDE903
:101EC000000104F13000C0B28DF80500FF20FFF7DB
:101ED000D7FFFF20FFF7D4FFFF20FFF7D1FF062138
:101EE0006846FFF7DBFFFF20FFF7CAFFFF20FFF781
:101EF000C7FFFF20FFF7C4FF1CBD0FB430B5A1B072
:101F000005466C4626A820906846209A259902F03E
:101F1000E5FC002020900BE014F8011B284600F09F
:101F20003FFF00BF8021284600F0A8FF0028F9D01D
:101F300020780028F0D121B030BC5DF814FB2DE9E9
:101F4000F04106460C460025204602F08BF987B288
:101F50000DE014F8011B304600F022FF00BF802185
:101F6000304600F08BFF0028F9D0681C85B2BD42D6
:101F7000EFDBBDE8F0812DE9F04107460C46154640
:101F800000260DE014F8011B384600F009FF00BFE1
:101F90004021384600F072FF0028F9D0701C86B24C
:101FA000AE42EFDBBDE8F0812DE9F04107460D467A
:101FB000164600240CE0295D384600F0F1FE00BF13
:101FC0008021384600F05AFF0028F9D0601C84B206
:101FD000B442F0DBBDE8F08110B586B004460121C3
:101FE00044F2040000F03CFD4FF40070ADF8140022
:101FF00003208DF8160018208DF8170005A99C48BD
:1020000000F072FA4FF48060ADF8140004208DF8EF
:10201000170005A9964800F067FA25208DF8000002
:1020200003208DF801008DF8020001208DF80300D7
:10203000684600F082FF01940020ADF80800ADF87A
:102040000A00ADF80C00ADF810000C20ADF80E0041
:1020500001A9844800F0ABFD012240F225518148DE
:1020600000F03DFE01217F4800F02DFE06B010BDBE
:1020700010B586B004460121042000F0F1FC0121D6
:10208000480400F0FAFC7B4800F04EFD0420ADF857
:10209000100003208DF8120018208DF8130004A9F9
:1020A000734800F021FA0820ADF8100004208DF8E4
:1020B000130004A9704800F017FA00940020ADF84E
:1020C0000400ADF80600ADF80800ADF80C000C20D7
:1020D000ADF80A006946674800F069FD01216548CE
:1020E00000F0F1FD012240F22551624800F0F7FDB9
:1020F00026208DF8140002208DF815008DF81600AA
:1021000001208DF8170005A800F017FF06B010BDDC
:1021100010B586B004460121082000F0A1FC012181
:10212000880400F0AAFC18208DF817004FF4806096
:10213000ADF8140003208DF8160005A94E4800F0F4
:10214000D3F904208DF817004002ADF814000320E5
:102150008DF8160005A9484800F0C6F90194002042
:10216000ADF810000C20ADF80E000020ADF80C000A
:10217000ADF80A00ADF8080001A9404800F017FDCD
:1021800001213E4800F09FFD012240F225513B48CD
:1021900000F0A5FD012240F22441384800F09FFDE7
:1021A00027208DF8000001208DF8030002208DF813
:1021B000010003208DF80200684600F0BEFE06B064
:1021C00010BD2F49086070470246002104E0505CB2
:1021D0002B4B5854481CC1B20429F8DB284800682E
:1021E0007047704770B50025002440F225511D4806
:1021F00000F05AFE002876D01A4800F0D5FDC5B28E
:10220000FD2D02D101201F4908701E4800780128C9
:1022100065D11D4890F832001B490D54084690F8CE
:102220003200401C81F83200084690F83200032842
:1022300055DD084640781549087013488078C01C61
:10224000C4B2114890F83210601C814229D10E4866
:10225000005DFF2825D10C48807801281AD0012084
:10226000094915E0003801407061676520350000BC
:102270000008014000440040000C014000480040BC
:10228000FC10002000110020C0120020F0100020DF
:1022900081F83300002053490870534981F8320017
:1022A0001DE0514890F83210601C814209DD002089
:1022B0004D4981F833004B4908704B4981F8320091
:1022C0000DE0494890F83200302808DD00204649EA
:1022D00081F8330043490870434981F832002021D6
:1022E000424800F0D8FD40F22441404800F0DCFDB7
:1022F00038B13E48001D008840F224413B4800F0C0
:10230000CAFD70BD10B540F22551394800F0CCFD32
:1023100010B3374800F048FDC4B23648008800F4D6
:102320000040C8B93348008800F4804060B10A2CEE
:1023300003D000202F49088020E02E48008840F478
:1023400000402C49088019E00D2C06D1294800884E
:1023500040F480402749088010E026480088C0F3F8
:102360000D0025490C5423480088401C2149088051
:1023700008460088C72801DD0020088010BD10B580
:1023800040F225511D4800F08FFDE0B11C4890F847
:102390003C001E2803D90020194981F83C00174849
:1023A00000F002FDC1B2164890F83C2090F83C00C5
:1023B000401C134B83F83C0003F11E008154202184
:1023C0000E4800F068FD40F224410C4800F06CFD1E
:1023D00038B10A48001D008840F22441074800F047
:1023E0005AFD10BD00110020C0120020003801402D
:1023F00000440040F8100020F81100200048004080
:10240000781100200648804706480047FEE7FEE7AF
:10241000FEE7FEE7FEE7FEE7FEE7FEE7FEE7FEE794
:10242000AF060008ED00000810B50446CC48844211
:1024300008D10121042000F02DFB0021042000F030
:1024400029FB46E0C748844208D10121082000F05A
:1024500021FB0021082000F01DFB3AE0C248844225
:1024600008D10121102000F015FB0021102000F000
:1024700011FB2EE0BD48844208D10121202000F04C
:1024800009FB0021202000F005FB22E0B84884422F
:1024900008D10121402000F0FDFA0021402000F089
:1024A000F9FA16E0B348844208D10121802000F0F7
:1024B000F1FA0021802000F0EDFA0AE0AE488442F3
:1024C00007D10121801500F0E5FA0021A01500F0E8
:1024D000E1FA10BD10B50121084600F0DBFA002139
:1024E000012000F0D7FA10BD2DE9F0410246002589
:1024F0000026002000230024002791F803C00CF0E0
:102500000F0591F803C00CF0100CBCF1000F03D0C4
:1025100091F802C04CEA050591F800C0BCF1000F2B
:1025200031D0146800202BE04FF0010C0CFA00F3BE
:10253000B1F800C00CEA03069E4220D183004FF0A0
:102540000F0C0CFA03F7BC4305FA03FC4CEA040435
:1025500091F803C0BCF1280F06D14FF0010C0CFA22
:1025600000FCC2F814C00AE091F803C0BCF1480FA7
:1025700005D14FF0010C0CFA00FCC2F810C0401C51
:102580000828D1D31460B1F800C0BCF1FF0F34DDCE
:10259000546800202EE000F1080C4FF0010808FA02
:1025A0000CF3B1F800C00CEA03069E4221D183006F
:1025B0004FF00F0C0CFA03F7BC4305FA03FC4CEA8E
:1025C000040491F803C0BCF1280F05D100F1080CF8
:1025D00008FA0CF8C2F8148091F803C0BCF1480F57
:1025E00007D100F1080C4FF0010808FA0CF8C2F806
:1025F0001080401C0828CED35460BDE8F0814FF60F
:10260000FF710180022181700421C1707047024670
:10261000002093680B400BB1012000E000207047C0
:102620000146886880B2704702460020D3680B409C
:102630000BB1012000E0002070470146C86880B25D
:10264000704701617047416170470AB1016100E064
:1026500041617047C16070474FF480320A43826124
:102660008161826182698269704702460020434B22
:1026700018684FF68073184040EA021008433F4B39
:10268000186070473E49C8617047F0B50A4600239C
:1026900000240021002500F00046B6F1004F02D1D1
:1026A000364EF16901E0354E7168C0F3034583B2DF
:1026B00000F44016B6F5401F08D121F070612F4E8E
:1026C000766826F070662D4F7E6012E000F480166A
:1026D000B6F5801F06D1032606FA05F4A14341F0A2
:1026E000706106E0460D360103FA06F6B14341F08B
:1026F000706122B1460D360103FA06F6314300F04F
:102700000046B6F1004F02D11C4EF16101E01B4EB4
:102710007160F0BD30B500228B071C0F0F2303FA48
:1027200004F2164B08338C1053F824309343134CA7
:1027300008348D1044F8253023468C1053F824308B
:102740008C07240F00FA04F423430C4C08348D103A
:1027500044F8253030BD0A49DC310860704700007C
:1027600000080140000C014000100140001401402D
:1027700000180140001C0140002001400000014001
:1027800000002042DF48006840F00100DD49086099
:1027900008464068DC490840DA4948600846006855
:1027A000DA490840D74908600846006820F48020CC
:1027B00008600846406820F4FE0048604FF41F009F
:1027C00088607047CF49096821F48031CD4A116093
:1027D0001146096821F480211160B0F5803F03D0D3
:1027E000B0F5802F0ED106E0C649096841F480316A
:1027F000C44A116007E0C349096841F4A021C14AF5
:10280000116000E000BF00BF704710B50146002214
:10281000002300204A11012A02D1BA4C236806E0A5
:10282000022A02D1B74C236A01E0B64C636A01F078
:102830001F02012494401C400CB1012000E0002044
:1028400010BD38B5002000900024002500BF3120C5
:10285000FFF7DBFF05460098401C00900098B0F59C
:10286000A06F01D0002DF2D03120FFF7CEFF08B1CC
:10287000012400E00024204638BD01460020A14A82
:10288000106820F0F80040EAC10010607047A049CD
:1028900008607047024600209A4B586820F47C106C
:1028A00042EA01031843974B5860704798490866FD
:1028B000704701460020934A506820F00300084307
:1028C000506070478F48406800F00C007047014628
:1028D00000208C4A506820F0F00008435060704798
:1028E00001460020874A506820F4E06008435060A9
:1028F000704701460020834A506820F4605040EA47
:10290000C1005060704729B17E4A527A02437D4B24
:102910005A7204E07B4A527A82437A4B5A72704769
:102920007B49D8310860704701460020754A5068DD
:1029300020F440400843506070470021714A203223
:102940001170704A82F82010012802D004280AD1A0
:1029500004E001216B4A2032117005E00521694A2B
:102960002032117000E000BF00BF70476949086065
:1029700070476449096A0143624A116270476549B8
:1029800044390860704730B500210022002400233C
:102990005C4D6D6805F00C0121B1042905D00829B2
:1029A00023D105E05C4D056022E05B4D05601FE032
:1029B000544D6D6805F47012524D6D6805F4803405
:1029C000022505EB92421CB9544D554305600BE0BE
:1029D0004C4D6D6805F400351DB1504D55430560F3
:1029E00002E04D4D5543056002E04B4D056000BFD0
:1029F00000BF444D6D6805F0F0010909484D6B5C5E
:102A00000568DD4045603F4D6D6805F4E061090AE9
:102A1000434D6B5C4568DD4085603A4D6D6805F45B
:102A20006051C90A3E4D6B5C4568DD40C560354D5F
:102A30006D6805F44041890B3A4D6B5CC568B5FB88
:102A4000F3F5056130BD29B12E4A526902432D4B81
:102A50005A6104E02B4A526982432A4B5A617047FB
:102A600029B1284A92690243264B9A6104E0254A1B
:102A700092698243234B9A61704729B1214AD269F6
:102A80000243204BDA6104E01E4AD26982431D4BA7
:102A9000DA61704729B11B4AD2680243194BDA60E8
:102AA00004E0184AD2688243164BDA60704729B1B5
:102AB000144A12690243134B1A6104E0114A126965
:102AC0008243104B1A6170471249403908607047C1
:102AD0000F49C86470470B49C87170470948406A7C
:102AE00040F0807007494862704701460020054A5F
:102AF00092680A400AB1012000E0002070470149B5
:102B000088727047001002400000FFF8FFFFF6FED9
:102B1000000042428004424200127A0000093D0057
:102B2000011100201111002010B50446FB48844219
:102B300009D101218803FFF7ADFF00214FF4804048
:102B4000FFF7A8FF32E0F648844209D1012148048A
:102B5000FFF7ADFF00214FF40030FFF7A8FF25E09D
:102B6000F048844209D101218804FFF7A0FF002129
:102B70004FF48020FFF79BFF18E0EB48844209D117
:102B80000121C804FFF793FF00214FF40020FFF755
:102B90008EFF0BE0E548844208D101210805FFF7CC
:102BA00086FF00214FF48010FFF781FF10BD2DE953
:102BB000F04786B005460E460024A24600BFA14657
:102BC0000027B08900B100BF2F462C8A4CF6FF7059
:102BD0000440F08804432C82AC894EF6F310044084
:102BE000B08831890843718908430443AC81AC8AB9
:102BF0004FF6FF400440B0890443AC8201A8FFF7C0
:102C0000C2FEC648874202D1DDF810A001E0DDF81F
:102C10000CA0A88900F4004040B10AEBCA0000EB08
:102C20000A1031684900B0FBF1F807E00AEBCA006E
:102C300000EB0A1031688900B0FBF1F86420B8FBA2
:102C4000F0F004012009642101FB1089A88900F437
:102C5000004040B1322000EBC900B0FBF1F000F0C1
:102C60000700044308E0322000EB09106421B0FBA8
:102C7000F1F000F00F0004432C8106B0BDE8F087AE
:102C80004FF41651016000218180C18001810C2127
:102C9000418100218181704710B502460020108AD1
:102CA0004FF2FF0318400B884C8823438C88234342
:102CB000CC8823431843108210BD0021018041803D
:102CC0008180C180704721B1828942F400528281A3
:102CD00004E082894DF6FF731A4082817047F0B597
:102CE0000346002400260025002040F66A17B9425A
:102CF00000D100BF1846C1F3421401F01F0601279E
:102D000007FA06F5012C01D10C3004E0022C01D1A8
:102D1000103000E014301AB107682F43076002E05A
:102D20000768AF430760F0BD1AB1838A0B43838203
:102D300002E0838A8B4383827047028A4FF6F073E6
:102D40001A400282028A0A430282704782894FF245
:102D5000FF731A40828182890A438281704721B1C0
:102D6000828942F00202828104E082894FF6FD737B
:102D70001A4082817047028A4FF6DF731A4002823E
:102D8000028A0A430282704721B1028A42F48042D9
:102D9000028204E0028A4BF6FF731A4002827047F7
:102DA000C1F308028280704701468888C0F308009A
:102DB0007047818941F0010181817047028BD2B255
:102DC0000283028B42EA012202837047028B02F4E3
:102DD0007F420283028B0A430283704721B1828AB9
:102DE00042F02002828204E0828A4FF6DF731A40AA
:102DF0008282704721B1828A42F01002828204E00E
:102E0000828A4FF6EF731A408282704721B1828A1C
:102E100042F00802828204E0828A4FF6F7731A4079
:102E20008282704721B1828942F40042828103E0AC
:102E30008289C2F30E028281704721B1828A42F4F4
:102E40000062828204E0828A4FF2FF731A4082821B
:102E50007047828A4FF6FB731A408282828A0A4345
:102E60008282704721B1828A42F00202828204E0AB
:102E7000828A4FF6FD731A40828270470246002014
:102E8000B1F5007F00D100BF13880B400BB10120CA
:102E900000E00020704701F40072B2F5007F00D11D
:102EA00000BFCA430280704770B502460024002369
:102EB0000025002040F66A16B14200D100BFC1F3E0
:102EC000421501F01F03012606FA03F3012D02D17A
:102ED0009689334006E0022D02D1168A334001E084
:102EE000968A33400C12012606FA04F41688344000
:102EF00013B10CB1012000E0002070BD10B500221C
:102F0000002340F66A14A14200D100BF0A12012436
:102F10009440A3B2DC43048010BD0000003801409F
:102F20000044004000480040004C00400050004079
:102F300031490143314A1160704770B500210023C7
:102F40000F22C47804B32D4C246804F4E064C4F563
:102F5000E064210AC1F10403CA40447804FA03F191
:102F60008478144021430901254C0678A155047842
:102F700004F01F050124AC4005786D11AD0005F18A
:102F8000E025C5F8004109E0047804F01F0501249C
:102F9000AC401C4D0678761145F8264070BD1A4AA3
:102FA0000A400243154B1B1F1A60704739B1134A80
:102FB000121D12680243114B1B1D1A6006E00F4AD6
:102FC000121D126882430D4B1B1D1A6070470428A6
:102FD00008D14FF0E021096941F004014FF0E022EF
:102FE000116107E04FF0E021096921F004014FF081
:102FF000E0221161704700000000FA050CED00E0CE
:1030000000E400E080E100E080FFFF1F10B504460F
:10301000BE48844208D101218014FFF73BFD002106
:10302000A014FFF737FD16E0B948844208D101210A
:103030000014FFF73CFD00212014FFF738FD0AE0E3
:10304000B448844207D10121C013FFF730FD0021AD
:10305000E013FFF72CFD10BD10B50022028802F42A
:1030600041520B884C8823438C882343CC882343CC
:103070000C8923434C8923438C892343CC892343E4
:103080001A430280838B4FF2FF74234083830B8AA1
:10309000038210BD2DE9F04F85B005460C464FF078
:1030A000000902274FF000084FF0010B0026B2463E
:1030B000A88B4FF240010840A88302202884B5F86D
:1030C0001C90A068022801D100BF38E0A08810B988
:1030D0004FF0010B01E04FF0020B8D48854200D10B
:1030E00000E000BF6846FFF74EFCDDF800A0E08876
:1030F000B0F5007F0AD14FEA1A2000EB80004000B3
:10310000A168B0FBF1F0401D86B20BE04FEA4B1016
:10311000BAFBF0F000EB80004000A168B0FBF1F0DA
:10312000401D86B20A20B6FBF0F606F00108A6EBB9
:103130000800C0F34F074FF6FF7000EA0828022F7F
:1031400001DBFF2F02DD02274FF00008E08840EA94
:10315000080038432884A088A1890843618808436F
:103160002188084340F4006040EA0909A5F81C9052
:1031700005B0BDE8F08F0021018041808180C180D1
:10318000018141818181C181072101827047002134
:10319000018041808180C180022181600021818184
:1031A000704721B1028842F04002028004E00288A8
:1031B0004FF6BF731A400280704721B1828B42F4F0
:1031C0008062828304E0828B4FF6FF331A40828351
:1031D000704730B5002400230C110125A540ABB287
:1031E0001AB185881D43858002E085889D438580CE
:1031F00030BD1AB183880B43838002E083888B4300
:1032000083807047818170470146888970474FF6F7
:10321000FF62914204D0028842F48072028004E08E
:1032200002884FF6FF631A400280704721B18288FE
:1032300042F00402828004E082884FF6FB731A4059
:103240008280704702884FF2FF731A400280028822
:103250000A4302807047018841F480510180704721
:1032600021B1028842F40052028004E002884DF647
:10327000FF731A400280704702460020012901D0E6
:10328000108B00E0908A70470146088A7047B1F5BC
:10329000804F04D1028842F48042028004E0028818
:1032A0004BF6FF731A4002807047024600201389D4
:1032B0000B400BB1012000E000207047CA4302819F
:1032C0007047F0B50246002000240023002501F0DD
:1032D0000F070126BE40B4B20B1101269E40B3B2C7
:1032E000968806EA03051689264016B10DB101201D
:1032F00000E00020F0BD10B5002201F00F04012312
:10330000A3409AB2D343038110BD000000300140B6
:1033100000380040003C004010B50446FE4884429E
:1033200008D10121C014FFF7B5FB0021E014FFF71D
:10333000B1FBC4E0B4F1804F08D101210846FFF78A
:10334000B6FB00210120FFF7B2FBB8E0F34884424E
:1033500008D101210220FFF7AAFB00210220FFF77C
:10336000A6FBACE0EE48844208D101210420FFF71F
:103370009EFB00210420FFF79AFBA0E0E94884426D
:1033800008D101210820FFF792FB00210820FFF758
:103390008EFB94E0E448844208D101211020FFF71D
:1033A00086FB00211020FFF782FB88E0DF48844283
:1033B00008D101212020FFF77AFB00212020FFF710
:1033C00076FB7CE0DA48844208D101214014FFF703
:1033D00061FB00216014FFF75DFB70E0D54884427B
:1033E00009D10121C804FFF755FB00214FF400204B
:1033F000FFF750FB63E0D048844209D10121080562
:10340000FFF748FB00214FF48010FFF743FB56E025
:10341000CA48844209D101214805FFF73BFB00213E
:103420004FF40010FFF736FB49E0C548844208D14D
:1034300001214020FFF73BFB00214020FFF737FB35
:103440003DE0C048844208D101218020FFF72FFBD6
:1034500000218020FFF72BFB31E0BB48844208D1DC
:1034600001218015FFF723FB0021A015FFF71FFBAB
:1034700025E0B648844209D101210804FFF70AFB80
:1034800000214FF48030FFF705FB18E0B04884427C
:1034900009D101214804FFF7FDFA00214FF4003063
:1034A000FFF7F8FA0BE0AB48844208D10121880409
:1034B000FFF7F0FA00214FF48020FFF7EBFA10BD80
:1034C00000220288944B98420ED0994B98420BD020
:1034D000B0F1804F08D0914B984205D0904B984264
:1034E00002D0904B984204D14FF68F731A404B880C
:1034F0001A438D4B984207D08C4B984204D04FF61C
:10350000FF431A40CB881A4302808B8883850B883F
:103510000385814B98420BD0854B984208D08B4B4A
:10352000984205D08A4B984202D08A4B984201D1EA
:103530000B7A038601238382704770B50024002232
:103540000023058C4FF6FE7635400584028C838877
:10355000048B4FF68F752C40B51E2C400D882C43E4
:10356000751E2A400D892A434D882A436A4DA84278
:103570000BD06F4DA84208D0744DA84205D0744DB1
:10358000A84202D0734DA84213D14FF6F7752A40D6
:103590004D892A434FF6FB752A408D882A434FF602
:1035A000FF652B404FF6FF552B408D892B43CD896E
:1035B0002B4383800483CD888586028470BD70B5DB
:1035C000002400220023058C4FF6EF763540058459
:1035D000028C8388048B48F6FF752C404FF6FF451C
:1035E0002C400D884FF6FF7606EA05252C434FF652
:1035F000DF752A400D8906EA05152A434D8806EA3B
:1036000005152A43444DA84202D0494DA8421DD178
:103610004FF67F752A404D894FF6FF7606EA05156D
:103620002A434FF6BF752A408D8806EA05152A43BE
:103630004FF6FF352B404FF2FF752B408D8906EA80
:1036400085052B43CD8906EA85052B4383800483BA
:10365000CD880587028470BD70B500240022002348
:10366000058C4FF6FF6635400584028C8388848B79
:103670004FF68F752C404FF6FC752C400D882C436F
:103680004FF6FF552A400D894FF6FF7606EA0525CD
:103690002A434D8806EA05252A431F4DA84202D039
:1036A000234DA8421DD14FF2FF752A404D894FF698
:1036B000FF7606EA05252A434FF6FF352A408D8816
:1036C00006EA05252A434EF6FF752B404DF6FF7599
:1036D0002B408D8906EA05152B43CD8906EA051591
:1036E0002B4383808483CD888587028470BD70B529
:1036F000002200230024058C4EF6FF763540058419
:10370000038C8488828B48F6FF752A404FF6FF456C
:103710002A400D8820E00000002C014000040040F9
:1037200000080040000C0040001000400014004061
:1037300000340140004C0140005001400054014061
:1037400000180040001C00400020004000400140E4
:1037500000440140004801404FF6FF7606EA052587
:103760002A434DF6FF752B400D8906EA05352B439C
:103770004D8806EA05352B43FA4DA84202D0FA4D92
:10378000A84208D14BF6FF752C408D894FF6FF7685
:1037900006EA85152C4384808283CD88A0F84050AA
:1037A000038470BD828B4FF2FF331A408283828B79
:1037B0004FF6FF7303EA01231A4382837047F0B583
:1037C0000C461546002200210026078C4EF6FF7C91
:1037D00007EA0C070784828B018C4FF6FF7707EA14
:1037E000043640F6FF473A404FF6FF7707EA0527D1
:1037F0003A434FF6FF7707EA03373A43D94FB842C7
:103800000ED0D94FB8420BD0B0F1804F08D0D74F6F
:10381000B84205D0D64FB84202D0D64FB84206D1F2
:103820004DF6FF77394046F48057394305E047F6B7
:10383000FF57394044F48057394382830184F0BDF7
:10384000828B4FF6F3731A408283828B0A43828302
:103850007047F0B50C461546002200210026078C63
:103860004FF6FF6C07EA0C070784828B018C4FF63A
:10387000FF7707EA04264FF60C773A404FF6FF77BA
:1038800007EA03172F433A43B64FB8420ED0B64F5C
:10389000B8420BD0B0F1804F08D0B44FB84205D039
:1038A000B34FB84202D0B34FB84206D14FF6FF57DC
:1038B000394046F48077394305E04FF2FF573940ED
:1038C00044F48077394382830184F0BD028B4FF248
:1038D000FF331A400283028B4FF6FF7303EA012382
:1038E0001A4302837047F0B50C46154600220021AA
:1038F0000026078C4FF6EF7C07EA0C070784028B43
:10390000018C4FF6FF7707EA041640F6FF473A406E
:103910004FF6FF7707EA03373A434FF6FF7707EA98
:1039200005273A438F4FB8420ED08F4FB8420BD085
:10393000B0F1804F08D08D4FB84205D08C4FB842BF
:1039400002D08C4FB84206D14FF6DF77394046F0AF
:103950001007394305E04FF65F77394044F0100710
:10396000394302830184F0BD028B4FF6F3731A4092
:103970000283028B0A4302837047F0B50C4615465A
:1039800000220021068C4FF6FE773E400684028B13
:10399000018C4FF60C7632407E1C06EA03162E434D
:1039A0003243704EB0420ED06F4EB0420BD0B0F1E9
:1039B000804F08D06D4EB04205D06D4EB04202D05F
:1039C0006C4EB04206D14FF6FD76314044F0010610
:1039D000314305E04FF6F576314044F001063143BE
:1039E00002830184F0BD70B505460C465D488542F2
:1039F0000ED05D4885420BD0B5F1804F08D05B48B2
:103A0000854205D05A48854202D05A48854200D1A5
:103A100000E000BF208850B92389A2886188284629
:103A2000FFF7ABFFE1882846FFF79EFF25E02088DF
:103A300004280AD12389A28861882846FFF753FF0A
:103A4000E1882846FFF742FF17E0208808280AD1BE
:103A50002389A28861882846FFF7FBFEE188284673
:103A6000FFF7EEFE09E02389A28861882846FFF768
:103A7000A6FEE1882846FFF795FE70BD2DE9F041CE
:103A800005460C4600260127608808B9022600E09A
:103A90000026A088012801D1022700E00127208804
:103AA000A0B92389A28861882846FFF766FFE188CC
:103AB0002846FFF759FF23893A4631462846FFF743
:103AC00012FFE1882846FFF701FF13E02389A2884F
:103AD00061882846FFF707FFE1882846FFF7F6FED2
:103AE00023893A4631462846FFF747FFE1882846B2
:103AF000FFF73AFFBDE8F0810A884B881A438B88AC
:103B00001A43CB881A430B891A434B891A438B8972
:103B10001A43A0F8442070474FF6FF7181800021BE
:103B20000180C18041800172704700210180418085
:103B30008180C180018141818181C18170470021E3
:103B400001804180012181800021C1800181704775
:103B50000021018041808180C1800181418181817A
:103B600070470000002C0140003401400004004078
:103B700000080040000C004021B1028842F0010220
:103B8000028004E002884FF6FE731A4002807047FC
:103B900031B1B0F8442042F40042A0F8442005E0DE
:103BA000B0F84420C2F30E02A0F8442070471AB1C6
:103BB00083890B43838102E083898B438381704730
:103BC0008182704741EA0203A0F8483070471AB179
:103BD00083890B43838102E083898B438381704710
:103BE00001894FF6F8721140018170470A460021A1
:103BF00001894FF68F73194011430181704730B529
:103C000004460D4629462046FFF7F0FF208940F084
:103C10000700208130BD2DE9F04104460D461646CF
:103C20001F46602D06D13B46012231462046FFF754
:103C30005AFE05E03B46012231462046FFF79DFE35
:103C400029462046FFF7D2FF208940F00700208157
:103C5000BDE8F08130B50C4600210189C9B24FF6AC
:103C6000FF7505EA0325154325432943018130BD2E
:103C70002DE9F04105460E46174698460024434676
:103C80003A4631462846FFF7E5FF2C894FF6F87093
:103C9000044044F007044FF68F70044044F0700471
:103CA0002C81BDE8F081F0B504460D4616461F464E
:103CB0003B46324629462046FFF7CCFF208940F498
:103CC00080402081F0BD0185828270470A46002134
:103CD00001884FF68F731940114301807047F0B58A
:103CE0000C4615461E460021002200230189028B46
:103CF000038C4FF6F877394021434FF6FC473A40A2
:103D000040F201173A434FF6DD773B404FF6FF771D
:103D100007EA06172F433B43018102830384F0BD6A
:103D20000A460021018B4FF68F731940114301831E
:103D300070470A460021018B48F6FF7319404FF681
:103D4000FF7303EA02231943018370470A460021E7
:103D5000818B4FF68F7319401143818370470A4658
:103D60000021818B48F6FF7319404FF6FF7303EA79
:103D7000022319438183704721B1028842F08002F7
:103D8000028004E002884FF67F731A400280704779
:103D900021B1828842F00402828004E082884FF6DA
:103DA000FB731A408280704721B1828842F008027A
:103DB000828004E082884FF6F7731A408280704751
:103DC00021B1828842F00102828004E082884FF6AD
:103DD000FE731A40828070470A460021018B4FF61D
:103DE000F77319401143018370470A460021018B84
:103DF0004FF2FF7319404FF6FF7303EA0223194392
:103E0000018370470A460021818B4FF6F7731940F2
:103E10001143818370470A460021818B4FF2FF7363
:103E200019404FF6FF7303EA022319438183704759
:103E30000A460021018B4FF6FB73194011430183A1
:103E400070470A460021018B4FF6FF3319404FF6A9
:103E5000FF7303EA02231943018370470A460021D6
:103E6000818B4FF6FB7319401143818370470A46DB
:103E70000021818B4FF6FF3319404FF6FF7303EAA1
:103E800002231943818370470A460021018B4FF6B4
:103E90007F7319401143018370470A460021018B4B
:103EA000C1F30E014FF6FF7303EA022319430183A6
:103EB00070470A460021818B4FF67F7319401143EA
:103EC000818370470A460021818BC1F30E014FF6B2
:103ED000FF7303EA02231943818370470A460021D6
:103EE000018C4FF6FD7319401143018470470A4657
:103EF0000021018C4FF6F77319401143018470477C
:103F00000A460021018C4FF6DF7319404FF6FF730C
:103F100003EA02131943018470470A460021018C09
:103F20004FF67F7319404FF6FF7303EA02131943EC
:103F3000018470470A460021018C4FF6FF53194057
:103F40004FF6FF7303EA02231943018470470A46C0
:103F50000021018C4FF2FF7319404FF6FF7303EA03
:103F600002231943018470470A460021018C4DF653
:103F7000FF7319404FF6FF7303EA023319430184BC
:103F8000704730B5002301248C40A3B2048C9C43BD
:103F90000484048C02FA01F5ADB22C43048430BDD4
:103FA00030B5002304248C40A3B2048C9C430484C9
:103FB000048C02FA01F5ADB22C43048430BD70B517
:103FC0000346002000241846183001258D40ACB26D
:103FD0001D8CA5431D8409B1082909D100EB61009E
:103FE000056825F0700505600568154305600EE05D
:103FF0000D1FC5F34E052844056825F4E04505600E
:1040000005684FF6FF7606EA02263543056070BD67
:1040100021B1028842F00202028004E002884FF6D9
:10402000FD731A400280704721B1028842F00402F9
:10403000028004E002884FF6FB731A40028070474A
:1040400021B1828842F08002828004E082884FF6AB
:104050007F731A408280704702884FF6F7731A40C8
:10406000028002880A430280704782884FF68F736D
:104070001A40828082880A438280704702894FF604
:10408000F8731A40028102890A430281704702894B
:104090004FF67F731A40028102890A4302817047FA
:1040A000818470478185704781867047018770479A
:1040B00081877047A0F84010704702884FF6FF4391
:1040C0001A40028002880A43028070470146888EA7
:1040D00070470146088F70470146888F7047014638
:1040E000B1F8400070470146888C70470146088D42
:1040F000704702460020138A0B400BB1012000E0FC
:1041000000207047CA430282704730B50246002043
:1041100000230024158A05EA0103958905EA0104B4
:1041200013B10CB1012000E0002030BDCA4302826F
:1041300070470000002044490860091D0860091DFF
:104140000860091D086041483F4914310860704704
:1041500000213D498279002A3AD00A461268036854
:104160009A430B461A600A1D126803689A430B1D96
:104170001A60027911440A6803681A430A60324AD5
:104180000832126803689A432F4B08331A601A1DCD
:10419000126803689A432C4B0C331A604279102A38
:1041A0000ED11A1F126803681A43274B08331A608E
:1041B0001A1D126803681A43234B0C331A600DE072
:1041C0002149427911440A6803681A430A6005E0EC
:1041D000027911440A6803689A430A607047002113
:1041E000016001710C2141710021817170471649F4
:1041F000103109680143144A1032116070470146BA
:104200000020114A143212680A400AB1012000E06D
:10421000002070470C4914310860704701460020A7
:104220000022094B1B6803EA0102074B14331B6889
:104230000B4013B10AB1012000E000207047024991
:10424000143108607047000000040140FFFF0F00B8
:10425000CAB2401E10F8011F8A4202D00029F9D1CB
:1042600000207047421C10F8011B0029FBD1801A66
:1042700070472DE9FE4F804681EA0300C00F0C46CF
:10428000009021F0004123F00045B8EB0200A94165
:1042900005D24046214690461C460B46024623F076
:1042A0000040104347D0270DC7F30A00C3F30A515B
:1042B0000290401A019040286BDAC3F3130040F4D7
:1042C000801B0098924620B10023D2EB030A63EBD7
:1042D0000B0B01985946C0F14002504600F0EEF930
:1042E00006460D4650465946019A00F006FA10EB74
:1042F00008006141002487EA115284EAE7731A43F7
:1043000040D0009A62B3019A012A4FEA075215DCA5
:10431000001B61EB02014FF0004202EA0752CDE9B7
:104320000042001C41F5801132462B4600F006FA8F
:1043300003B0BDE8F08F40462146F9E7001B61EB72
:104340000201001C41F5801300185B412018A2F502
:10435000001747EB030140EAD570B6196D4111E033
:104360006D084FEA360645EAC0754FEA0752001B52
:1043700061EB0201001C41F5801149084FEA300051
:104380000019514132462B4603B0BDE8F04F00F012
:10439000C6B90098012240000023D0EB020263EB73
:1043A000E073009821464FEAE074B8EB000061EB3F
:1043B0000401E9E783F000435BE781F0004158E73F
:1043C0002DE9FE4F81EA030404F0004421F000418E
:1043D00000944FF0000B23F0004350EA01045ED03C
:1043E00052EA03045BD0C3F30A54C1F30A552C44C8
:1043F000A4F2F3340194A0FB0254C1F3130141F47D
:104400008011C3F3130343F4801301FB024400FB48
:10441000034E840A970A44EA815447EA8357A4FB6F
:10442000076802958D0A05FB07854FEA932C04FB6C
:104430000C542705029D4FEA065847EA1637B5EB9C
:1044400008056EEB070C870E920E47EA811742EAC9
:104450008312A7FB0201B6EB0B0164EB00042B0DEA
:1044600043EA0C335E1844EB1C50DA465146E7FB36
:104470000201C5F313044FEA0B3343EA14534FEA26
:104480000432019C43EA0603A4F10C040294009C4C
:10449000CDE900B400F052F903B0BDE8F08F002080
:1044A0000146F9E72DE9F04D81EA030404F0004BE1
:1044B00021F0004514464FF0000A23F0004150EA75
:1044C000050220D054EA01021DD0C5F30A57024666
:1044D000C5F31303C1F31300C1F30A5640F480156A
:1044E00043F48013A7EB0608101BD64608F2FD38EC
:1044F00073EB050002D308F1010801E092185B415B
:10450000B8F1000F03DA00200146BDE8F08D00206D
:104510004FF48011064684460EE0171B73EB050727
:1045200005D3121B63EB050306434CEA010C490853
:104530004FEA300092185B4150EA0107EDD152EA90
:10454000030012D082EA040083EA0501084305D083
:10455000101BAB4106D20122002306E000224FF0DF
:10456000004302E06FF0010253101AEB06004CEB1F
:10457000085110EB0A0041EB0B01BDE8F04D00F0D3
:10458000CEB80EB5C10F80EAE0700844CA0700211A
:1045900040F233438DE80E000A460B4600F0CEF899
:1045A00003B000BD0EB540F2334102910021CDE9C8
:1045B00000110A460B4600F0C1F803B000BD70B50B
:1045C000C1F30A5201F000450024C1F3130140F287
:1045D000FF3341F480119A4201DA002070BD40F2AD
:1045E00033439A42A2F2334203DC524200F075F8A0
:1045F00000E090402C43F1D0404270BDC1F30A521C
:1046000010B5C1F3130140F2FF3341F480119A4217
:1046100001DA002010BD40F233439A42A2F2334245
:1046200003DC524200F059F810BD904010BD30B587
:104630000B46014600202022012409E021FA02F560
:104640009D4205D303FA02F5491B04FA02F52844FA
:10465000151EA2F10102F1DC30BD2DE9F05F054627
:10466000002092469B4688460646814640241BE031
:10467000284641464746224600F02FF853465A4600
:10468000C01A914110D311461846224600F016F880
:104690002D1A67EB01084F4622460120002100F049
:1046A0000DF817EB00094E41201EA4F10104DFDCD8
:1046B000484631462A464346BDE8F09F202A04DB9F
:1046C000203A00FA02F1002070479140C2F1200325
:1046D00020FA03F3194390407047202A04DB203A64
:1046E00021FA02F00021704721FA02F3D040C2F112
:1046F00020029140084319467047202A06DBCB1759
:10470000203A41FA02F043EAE07306E041FA02F38C
:10471000D040C2F12002914008431946704710B5BD
:10472000141E73F1000408DA401C41F100019218D4
:104730005B411A4301D120F0010010BD2DE9F04D7D
:1047400092469B4611B1B1FA81F202E0B0FA80F2D2
:1047500020329046FFF7B2FF04460F4640EA0A00B7
:1047600041EA0B0153465A46084313D0114653EA17
:10477000010019D0C8F140025046FFF7AEFF0546D0
:104780000E46504659464246FFF798FF084305D06B
:10479000012004E020463946BDE8F08D00200543A5
:1047A00046EAE0762C4337430A986305E40AA0EB17
:1047B00008000022FD0A44EA47540A3002D50020CE
:1047C0000146E9E7010510196941DDE908450019CD
:1047D0006941BDE8F04DA2E7C1F30A52C1F31301EC
:1047E00040F2FF3341F480119A4202DA0020014680
:1047F000704740F233439A42A2F2334202DC524203
:10480000FFF76BBFFFF75ABF30B5041E71F100040C
:1048100004DB4FF00044404264EB0101141E73F1CD
:10482000000405DB1C464FF00043524263EB0403D7
:10483000994208BF904230BD064C074D06E0E06843
:1048400040F0010394E8070098471034AC42F6D3D7
:10485000FBF750FCDC510008FC51000870B58D18C6
:1048600010F8014B14F0030201D110F8012B2311B1
:1048700006D110F8013B03E010F8016B01F8016B61
:10488000521EF9D1ABB110F8012B04F00C048A1AB6
:104890000C2C03D0A2EB84129B1C08E010F8014BF7
:1048A000A2EB0422F8E712F8014B01F8014B5B1E62
:1048B000F9D5A942D4D3002070BD00000FB4054B38
:1048C00010B503A9044A029800F0ECF810BC5DF89A
:1048D00014FB0000691E0008F410002037B51446D0
:1048E0000846064B6A46214600F0DCF80446694655
:1048F000002000F06EFC20463EBD0000D3510008B1
:1049000002E008C8121F08C1002AFAD17047704798
:10491000002001E001C1121F002AFBD170470000F6
:104920002DE9FF5F82B00021DDE90430020DDDF8E2
:1049300040B0034318D044F61050A2F2FF32424375
:104940001514119801281FD0A5EB0B00401C5FEA3D
:10495000000A4FF000064E4FDFF83891B04650463F
:1049600015D5CAF1000413E0119801244AA30128C7
:1049700001D16FEA0B010298119AC0E90031C0E938
:10498000024206B0BDE8F09FCBF10000DFE704462D
:104990000021404A491842EB0450CDE9001012E0D2
:1049A000E00707D032463B4640464946FFF708FD40
:1049B0008046894632463B4610461946FFF700FDC1
:1049C00006460F466410002CEAD1DDE90401DDE95A
:1049D0000023BAF1000F06DAFFF7F2FC42464B461D
:1049E000FFF7EEFC05E0FFF75DFD42464B46FFF7A3
:1049F00059FD04460E460022284BFFF705FF03D859
:104A00004FF0FF30014607E00022254B204631469B
:104A1000FFF72FFCFFF7E0FE102409E0002C0ADB73
:104A20000A220023FFF719FE039B30321A55641E39
:104A300050EA0102F2D1641C039AC4F11103144438
:104A4000119A012A03D0012208430DD10AE008433C
:104A500004D000204FF0110B119072E7A3EB0B056F
:104A60006D1E0DE05B4504DD4FF0000205F1010510
:104A700004E003DA4FF00002A5F10105002AECD0B2
:104A800002981199C0E90231C0E9004579E70000B8
:104A9000000014400000F03F300000000000F04330
:104AA0000000E03F2DE9FF4F95B09B468946064642
:104AB00000250FE2252877D100242746F84A012156
:104AC000059400E0044316F8013F203B01FA03F08F
:104AD0001042F7D130782A2811D06FF02F033078A8
:104AE000A0F13002092A16D8059A44F0020402EB1C
:104AF000820203EB42021044761C0590EFE759F85E
:104B0000042B0592002A03DA504244F40054059025
:104B100044F00204761C30782E2816D116F8010FC6
:104B200044F004042A280DD06FF02F023078A0F151
:104B30003003092B09D807EB870302EB4303C7189F
:104B4000761CF3E759F8047B761C30786C280FD07C
:104B500006DC4C2817D068280DD06A2814D104E050
:104B6000742810D07A280FD10DE044F400140AE024
:104B700044F4801401E044F440147278824202D17B
:104B800004F58014761C761C307866280BD013DC74
:104B9000582877D009DC002875D04528F6D046285B
:104BA000F4D047281AD19DE118E0632835D0642855
:104BB00079D0652812D195E1702873D008DC672878
:104BC000F1D069286FD06E280DD06F2806D1B5E0DE
:104BD00073282CD0752875D0782874D05A46179928
:104BE00090476D1C75E1C4F30250022809D00328D8
:104BF0000DD0D9F8001004280DD00D6009F104097A
:104C000067E1D9F80010EA17C1E90052F6E7D9F8D0
:104C100000100D80F2E70D70F0E719F8041B8DF815
:104C2000001000208DF80100EA46012003E059F849
:104C300004AB4FF0FF3061074FF0000102D40DE0EC
:104C400008F101018846B9420FDA8045F8DB1AF80D
:104C500008100029F4D108E008F1010188468142DA
:104C6000FADB1AF808100029F6D105985B46A0EB8C
:104C7000080721463846179A00F094FA284400EBBA
:104C8000080507E04DE029E10DE01AF8010B5A464E
:104C900017999047B8F10108F7D25B46214638468C
:104CA000179A13E142E00A220092C4F302524FF035
:104CB000000A022A08D059F804CB032A4FEAEC7103
:104CC0000AD00DE029E02AE009F1070121F00702EE
:104CD000F2E802C1914609E00FFA8CFC4FEAEC7150
:104CE000042A03D14FFA8CFC4FEAEC71002907DA51
:104CF0000A460021DCF1000C61EB02012D2202E0EA
:104D0000220504D52B228DF80420012203E0E207BE
:104D100001D02022F7E7904659E00A2102E0102254
:104D20000DE010214FF0000A00910BE010224FF02F
:104D3000000A44F004040827009203E008224FF020
:104D4000000A0092C4F30252022A05D059F804CB9B
:104D50000021032A08D009E009F1070121F0070228
:104D6000F2E802C1914605E01FFA8CFC042A01D149
:104D70000CF0FF0C4FF00008220728D5702806D051
:104D8000009B83F0100353EA0A0305D00EE0402293
:104D90008DF80420012208E05CEA010206D03022EE
:104DA0008DF804208DF8050002229046009B83F0C8
:104DB000080353EA0A030AD15CEA010201D162073F
:104DC00005D530228DF804204FF001087F1E5828A9
:104DD00004D034A003900EA802900DE036A0F9E7AD
:104DE00053466046009AFFF738FC84460398825C7D
:104DF0000298401E029002705CEA0100F0D1029815
:104E000006A9081A00F1200A600702D524F48034AC
:104E100000E00127574502DDA7EB0A0000E0002073
:104E200000EB0A01009005984144401A0590E00308
:104E300006D45B462146179A059800F0B3F905445D
:104E4000002706E001A85A46C05D179990476D1CDF
:104E50007F1C4745F6DBE0030CD55B462146179ADD
:104E6000059800F09FF9054404E030205A46179950
:104E700090476D1C0099481E00900029F5DC08E061
:104E8000029802995A460078491C02911799904756
:104E90006D1CBAF10001AAF1010AF1DC65E1000024
:104EA0000928010030313233343536373839616200
:104EB00063646566000000003031323334353637C4
:104EC00038394142434445460000000000F058F99B
:104ED0000544761C307800287FF4ECAD19B02846E4
:104EE000BDE8F08F620700D4062709F1070222F01F
:104EF000070CFCE80223E14603F000485FEA080CD7
:104F000002D00FF2702C0DE05FEA045C02D50FF2C4
:104F1000682C07E05FEAC47C02D00FF2602C01E04D
:104F2000AFF2700C4FF0FF3823F00043CDF850C0C3
:104F300065280CD006DC452809D046281DD0472816
:104F40003DD13DE0662818D067287ED138E00021A9
:104F5000112F01DB112000E0781CCDE9000106A92A
:104F60000EA8FFF7DDFCDDE90F010E9A0391002189
:104F7000009207F1010A04914DE04FF000400097C4
:104F8000CDE9011006A90EA8FFF7CAFCDDE90F0262
:104F900003920E9B11990022DDF80CA0009304925D
:104FA00011B9791C00EB010AB7EB0A0004D4C0F177
:104FB000FF3007F1010A0490AAEB0700019044E0DA
:104FC000012F00DA01270021112F01DD112000E05F
:104FD0003846CDE9000106A90EA8FFF7A1FCDDE9DE
:104FE0000F010E9A0391002104910092BA46210705
:104FF0000CD40399514500DA8A46BAF1010F05DD58
:10500000009AAAF10101515C302908D0B84202DAB5
:1050100010F1040F06DA0121CDE9011015E0AAF123
:105020000101E9E7002805DC049901440491AAEB99
:10503000000102E0411C514500DD8A460499401AF6
:10504000401C01904FF000400290200704D40198CA
:10505000504501DBCDF8048000208DF84F00029808
:105060000DF14F07B0F1004F25D02B200E90029884
:105070004FF0020800280CDA404202902D200E90DA
:1050800007E00A210298FFF7D2FA3031029007F8C0
:10509000011DB8F10001A8F10108F2DC0298002816
:1050A000EFD1791E0E980870307800F0200040F0A3
:1050B000450007F8020D12A8C01B00F1070814985C
:1050C000007800B1012000EB0A01019801EBE071CA
:1050D00005984144401A401E0590E00306D45B4603
:1050E0002146179A059800F05DF805441498007859
:1050F00018B15A46179990476D1CE00324D55B46BA
:105100002146179A059800F04DF805441CE00498D4
:10511000002807DBDDE90301884203DD0098405CDD
:10512000179901E0179930205A469047049805F1E5
:105130000105401C04900198401E019004D12E20CE
:105140005A46179990476D1CBAF10001AAF1010A5D
:10515000DDDC05E017F8010B5A46179990476D1CE6
:10516000B8F10001A8F10108F4DC5B462146179A6A
:105170000598ABE62D0000002B0000002000000089
:105180002DE9F041044600251E461746880404D444
:1051900005E039462020B0476D1C641EF9D528462D
:1051A000BDE8F0812DE9F041044600251E469046F9
:1051B000C80301D5302700E02027880404D505E086
:1051C00041463846B0476D1C641EF9D52846BDE8F7
:1051D000F0810A68531C0B6010707047FC51000886
:1051E00000000020181100005C480008BC5C0008AA
:1051F00018110020E005000010490008920001107D
:1052000006066DFABA8008700D42BF68003E541C55
:105210000B7EFCF80C1D32FF0142010C400407809C
:105220002910A13F9300644C31297004A24A041054
:1052300000091002030406070809000152F83F3272
:1052400033061004100C06037154200440C0780388
:10525000200500043F0403100800007088FC08309B
:105260002E100E1820FF211E0000F008F000E0189C
:105270003E4005211C031E111388700FE00C1E21F7
:1052800023241927211010160E702005E01804029F
:105290006A300B071820400000020418E06920045F
:1052A00020180770300E4080F0804040000202015C
:1052B0000F01022832F0C0100401011F047145C023
:1052C0000480B0705642010171B98330302C34082B
:1052D00060180400601806141006E0100808107228
:1052E00010070F102020100FF0461000100620208D
:1052F0003F20202D3004700808C2100630282422D8
:1053000021E9100630088888480820061820202047
:1053100011CC33C020321407070424243F243E114B
:10532000204007080800001921202405E010888883
:1053300010430F11101006380808C8382030040038
:10534000003F8D4370886080071C222121221C9021
:1053500010060031222211901161C2C0C26280C6C3
:105360005108100440201070140701020408102096
:1053700030310143000401130000152A4045112576
:10538000130402F2137048D135431330360F14065C
:10539000C030C828E80020080718272423140B6F02
:1053A00022387E200D203C23020227382008F8886E
:1053B00088FF250E21D017C03010270838AD1530D2
:1053C0003406080008F80840312015402130300428
:1053D000E8081030A004232018102300035E2140A9
:1053E0003638ED200520221E024011A41009F808CD
:1053F000203F2101012125220852958051112006CC
:10540000C08080807F0E2007F888C0281808704070
:105410000501263820405200A0132030201004F847
:1054200000F85417203F60214F4004F830C060124C
:1054300020E4363F5F21B025EF41B021D033F000AA
:105440008083010020300718242438504FC02501E4
:1054500031C034040C3020B021C1373820B03218AC
:105460009F42188231A041D023001F9034081F00B2
:105470000878880000F1100407380E60119B12F8BC
:10548000B5401D00033C0700073C03000818688076
:105490008068180820302C03032C30200838C82FCF
:1054A0005150218F213F18042038265129494C049E
:1054B00000FE020803267FE85804000C301F180580
:1054C000000106382A111D3EFEA903274040301076
:1054D0000400000412FE04E503528001F2001D31B5
:1054E0001619C01806242222223F0032000F5B004A
:1054F0003FC0312119D01A0ED04320114B4388F8F8
:10550000102210B35140121F3F2322131E1AF042E3
:105510008618D041772408006B94949493600B31E3
:105520000F158041F3BC04809898800352001259F3
:1055300001153B31311406203F24022D8F2930AD57
:10554000B00361D7214B2103112BC16071A045A08D
:1055500031202D400493FFA1E04280E033A0FF4CB6
:10556000315019A13E20460551C0133324012219A0
:10557000E046E02125F252004D428060151031ECEA
:1055800025681C05010E300872042170256318047B
:105590000F300C4F320F2C41A16007312E0E3120FD
:1055A00000303C0580818E70A20455A73C05002187
:1055B000302C8004215F4A7C012B003F011DFF0538
:1055C0006D130625EF340402027CB04F40406004A6
:1055D0001E0236054D60055126200CFE1292B2D2F5
:1055E000929292D2B29E271C07300F0484641F2F20
:1055F000043EFF2F0411401006FAAAAFAAAA042EF7
:10560000FA6F05301012120A7E0A0B0AFE0A2A4AA5
:105610003E0A12124142920149672805424458400D
:105620008A1C077F4050484640B00522420132C2E2
:10563000061D88041D77043C04060040BB031DA121
:1056400004180730001060028CC21AF2A522F8B1CB
:10565000240D04047E018047300F10270047E0111D
:10566000402004CC0090013806FF101116107A1467
:10567000071028603F1010412E40B80413F01001AD
:1056800022FF053D09065004000F04BD2E042E051F
:1056900011C92C0AC44F4444F444444FC4000518B3
:1056A000108484444724140C070C14244744848435
:1056B0002F1D62033C0408090E56031D58041E806A
:1056C0005D061C0820110A040A11206B06100680D2
:1056D000009052345D2C06345280708F8A041C096D
:1056E00000829A566322528E66051C04330C33499D
:1056F000051F100CE8052C0B242526A464240404A3
:10570000140C6F033006020242827F0825314C0BD5
:10571000FE024222325E92523212890316FF0E14AA
:105720000651556469411645A92EFEAA044DB004E0
:105730003D8D06421F3C3DB60315501009CC0000BC
:10574000445454547F042644DF3C0B7F201000FF58
:1057500015151555950005140A08F94A48C848203A
:10576000D81700271010C05C0C20403F8040211645
:10577000081621401B065F00FF06065E0010065E4D
:105780007F1706EF40006005EDD005413033FF4440
:1057900001495F495A2D5F065600A0300580888870
:1057A000FF031DC8033C0C40201F2040504C4340C9
:1057B000405F900418051088C4331649031DB807CC
:1057C0004A0197490325F02C0C84C4A49C85868447
:1057D00084A4C484400815812D07031B007FF33D7A
:1057E00097063D7105115F4F888889072E1FA10517
:1057F000227F100004209F80F0403C0E8060F8075C
:1058000004E4A4A4BFA4A4E404F808150D237F4A6B
:10581000011D31051DDF07200BD0FF9014E4AFA45C
:10582000A4A4AF201B0403861009894B2A1A0E1A60
:105830002A4BD03B10107D3962398018042060203B
:105840007D1E10FD051D49072DAD041C0A4020508A
:105850004844C3444850580725005B221A002F0AC9
:1058600012920718048C44B51D1C090C02F21AD6BA
:1058700012F202C0051809FC4A494AFC08804FE4AC
:105880002E2FCA0753E2820145F12DC503610103A2
:105890003F7800E0051EC01D5A0443BEA2014EBE63
:1058A000C9051C04000605350374064484443C0005
:1058B0003F19E312FF042541151F2C0B8081452958
:1058C000112F414181812A052EFED905410589BF4D
:1058D0003E7F05037DD3096FC03F95062D9E082EA0
:1058E0000CF90735401D58054202FC35056A02A037
:1058F00079A14D20042C08FC01D650FA52D2400365
:105900002D200411830808402F1AFF192F80FF4013
:105910000D1E4004100C2030AC6320180848484885
:105920007F041C07080022672212F7043EFED604FB
:105930003190251D351E151F1E046705140C2722E6
:10594000120A06FF060A12222780100A829A9693EC
:10595000FA5252807E361BF111403C070100FE9343
:10596000929330055603603C0A0004745455565413
:1059700054748E0B2049FF0003010545857D050504
:1059800005010300C6C1C4BBCFD4CABEB2E2CAD4AB
:10599000D6D0D3A2CEC4CAFDD7D6CDBCC6ACC7EB39
:1059A000B7C5C9CF4943BFA8BDF8D0D0B3E4B5E768
:1059B000B3E4D6B5C4A3CABDD3E0B6EED2D10E20AF
:1059C0000FBFA8BAC5CAB9D3C3C8CBCDF5C0BD24D3
:1059D0001C10D6D0BDE1CAF8D4DDCDA30020212211
:1059E00023BA04102E2728292A2B2C2D2E2F3031B4
:1059F00032333435363738393A3B3C3D3E3F40410F
:105A000042434445464748494A4B4C4D4E4F5051FE
:105A10005253A8002A225758595A5B5C5D5E5F605A
:105A20006162636465666768696A6B6C6D6E6F70EE
:105A30007172737475767778797A7B7C7D7E0001DC
:105A400020046C7E7A015C0974706060E0C0C0C0A4
:105A50003A070D10840C1380801E4005E0606074CE
:105A600030032B6C0001113D2033E0E0F0F0F8F83A
:105A7000F8FCFCFCBEBEFEFED6DFDFFF7F7F7FBFF3
:105A8000FFF7F7FFBF7FFFFEFEEECEECFCFCF8F960
:105A9000B9337367E6CECC9C18B0F0E001200DF06E
:105AA00030189C8CCEE6E77373B9F93C6006EECEF5
:105AB000EEFEFE37100B7F7FFFDFDFD7F67EBEBE28
:105AC0001A115C22F0340210C0C24EFE9B0D100C65
:105AD000FFFFD89FBFFF7D7DEDF3FF1210197637D2
:105AE0003B3F3F3BB9FBDFFFFF3DBEB77773F7FF9F
:105AF000FFFC7F7FF7FE552004FFF5F30F100B1F0F
:105B00006D1FFFFFF677F3F1FFAB2013FF73777F75
:105B1000FCFFFFF7737737BFBCFFFFDFFBF93F20C8
:105B2000043776EF4C6008E1FD7DFFBF9FD867D753
:105B3000FE7C65600801030F0F1F1F1F201024FF4C
:105B4000FFFBFDBEDBDF9F3BFBFBF71FFCF13FFFD5
:105B5000FC86B7D36DEDBEFAFB6DBDF6FB7BBDDDFC
:105B6000FEFEB31006F000F408F94D1020FE7EDDB5
:105B7000BD7FFBF6BE6D7BDBF6F56DCBFF86FDFED4
:105B80001FF3FC1EE7F7FB3B9FDFDBBE947157045E
:105B900008173F1F1F0F0F0703ED200503071F3FC7
:105BA000E01005FFFBF7EFC4501ADCDFDFDFEE7714
:105BB000F9FCDFFF6F6F66F3FBDDCEE673B99DCEB8
:105BC000E7BBFD4F6206D01017B9F3C68C193367D7
:105BD000CE9DF9F367676D7FDFFCBD7FFFEDDF4092
:105BE0004404FFFFEF5A0807257F3F1F0F03010EF4
:105BF00020040101030126FB0915541C14FFEEE7E4
:105C0000E7E70FFEFCF9FFFEFDEE67F97EF7FFCF39
:105C1000480F11FA16C0A713013F631011F76FFD6B
:105C2000F7EFDDFEFFB3FDFE8FD7E7E7E67816FE60
:105C30009633FFFB48000434010100012404030FE4
:105C40001F0D15421407F7E7F7FF8F83E71805FBD1
:105C5000FBFBE71E2F3F0CCF0F3E03C00F123FA2EE
:105C600012E718440AFF7FFF83AFDFFFE7F77000FA
:105C700005367F3F0F0779C91C2B03071E163F9A75
:105C80004101127E0410043F3F1F5E240401070FF0
:105C9000B150047F7E7E1B563FE2022C03F30D11B0
:105CA0008B107D401000052034B21EEBA51D9D1009
:0C5CB0006DA1102C04020406E20D00009F
:04000005080000ED02
:00000001FF
